:020000020000FC
:1000000011E20FEF1EBF0DBF1FEF109324001093DE
:100010000A0113E002E31F930F9312E000E01F9325
:100020000F93A7D00F910F910F910F9123E012E042
:1000300000E01F930F9306D00F911F912A95222362
:10004000B1F7FFCF0F93972F992319F011979A9536
:10005000FBCF11970D91002319F00E943200FACFC7
:100060000F9108951F932F933F934F935F9340EF0A
:100070001FE0402346954695469546954F3021F121
:10008000102354E0541B503021F0110F5A9550307A
:10009000E1F728E0322F3123303011F059F41BC042
:1000A00006E00E9476000E9415010E94B2000E94A4
:1000B000110111C006E00E9476000E9411010E9409
:1000C000B2000E94110107C00E9411010E9411019B
:1000D0000E94110105C0110F322F4A954030D9F608
:1000E0005F914F913F912F911F9108951F931FEFA3
:1000F00010930A0114B91F91013051F0023069F0D8
:10010000033081F00430B1F00530E1F0063011F138
:100110000F9302E005B90F9108950F930AE005B916
:100120000F9108950F930AE005B902E000930B01C7
:100130000F9108950F930AE005B90AE000930B01AF
:100140000F9108950F930AE005B90AE200930B019D
:100150000F9108950F930AE005B90AEA00930B0185
:100160000F9108952F9320E025B920930B012F9133
:1001700008951F932F933F93DEB7CDB7FA85E98596
:10018000B885AF814591DF2FCE2F442361F02D2F0D
:100190001C2F4F930E94E0004F91D22FC12F0D9240
:1001A000FD2FEC2FEFCF40E24F930E94E0004F91E4
:1001B0000D9200240D92792F3F912F911F91089558
:1001C0002F933F93CDB7DEB7442720E1F2E0E4E57B
:1001D0005E8100243327503291F06491651711F04D
:1001E0003896FBCF31966491603089F06D3211F012
:1001F0006E3219F00394000C06C0000C04C03FEFEF
:10020000030E93950BC0339531966491EDCF330F68
:10021000330F330F330F0694030E93953F912F91B5
:10022000089505D004D003D0089501D0089501D0D9
:1002300008950F931F932F9308E00A9539F01FEF4D
:100240001A95D9F32FEF2A95D9F3FDCF2F911F914E
:100250000F910895412E2D0000000000422D2E2EFA
:100260002E000000432D2E2D2E000000442D2E2E9A
:1002700000000000452E000000000000462E2E2D3C
:100280002E000000472D2D2E00000000482E2E2E9F
:100290002E000000492E2E00000000004A2E2D2DB9
:1002A0002D0000004B2D2E2D000000004C2E2D2E79
:1002B0002E0000004D2D2D00000000004E2D2E00C0
:1002C000000000004F2D2D2D00000000502E2D2D80
:1002D0002E000000512D2D2E2D000000522E2D2E0F
:1002E00000000000532E2E2E00000000542D0000B0
:1002F00000000000552E2E2D00000000562E2E2E40
:100300002D000000572E2D2D00000000582D2E2E00
:100310002D000000592D2E2D2D0000005A2D2D2EC0
:100320002E000000000000000000000041204120DD
:100330004100424F4F4253004120424F5800444138
:1003400049525920515545454E005448452053487F
:10035000415045204F4620574154455200004445E6
:100360004144504F4F4C20414E4420574F4C56452E
:1003700052494E45000045564552595448494E474A
:10038000204556455259574845524520414C4C202E
:100390004154204F4E4345004F2043414E4144417C
:1003A000205445525245204445204E4F5320414948
:1003B000455558004841524420544F205357414C12
:1003C0004C4F572050494C4C5300574841542047FC
:1003D0004F4420484154482057524F5547485400F5
:00000001FF
